:020000040800F2
:1000000058070020A9010008E73000083D2C00082F
:10001000E530000819060008C13B00080000000098
:100020000000000000000000000000000B3100088C
:10003000C306000800000000093100080D31000867
:10004000C3010008C3010008C3010008C301000880
:10005000C3010008C3010008C3010008C301000870
:10006000C3010008C3010008C301000845060008D9
:10007000C3010008C301000851060008C3010008BD
:10008000C3010008C3010008C3010008C301000840
:10009000C3010008C3010008C3010008C301000830
:1000A000C3010008C3010008E9310008C3010008CA
:1000B000C3010008C3010008C3010008C301000810
:1000C000C3010008C3010008C3010008C301000800
:1000D000C3010008B53B0008C3010008C3010008C4
:1000E000C3010008C3010008C3010008C3010008E0
:1000F000C3010008C3010008C3010008C3010008D0
:10010000C30100080000000000000000C301000857
:10011000C3010008C3010008C3010008C3010008AF
:10012000C3010008C3010008C3010008C30100089F
:10013000C3010008C3010008000000000000000027
:10014000C3010008C3010008C3010008000000004B
:10015000000000000000000000000000000000009F
:10016000C3010008C3010008C3010008C30100085F
:10017000C3010008C3010008C3010008C30100084F
:10018000C3010008C30100080000000000000000D7
:10019000C3010008DFF80CD000F02AF8004800473F
:1001A000ED3D0008580700200648804706480047F4
:1001B000FEE7FEE7FEE7FEE7FEE7FEE7FEE7FEE717
:1001C000FEE7FEE78131000895010008D2B201E0A8
:1001D00000F8012B491EFBD270470022F6E710B54C
:1001E00013460A4604461946FFF7F0FF204610BDA5
:1001F000064C074D06E0E06840F0010394E8070074
:1002000098471034AC42F6D3FFF7C8FFA03F000870
:10021000C03F00080146406A426C12F0500F03D004
:10022000C06B026B08461047416C41F40071416499
:100230000168C96811F4406F0CD1C16951B9416CB2
:1002400021F480714164416CC90403D4416C41F0D4
:100250000101416400F0D8BC406A416C41F04001AA
:100260004164816C41F00401816400F0D0BC406ABB
:1002700000F0CCBC70B504460068816801F0030151
:10028000012926D10168C90723D0816801F00D0139
:10029000012910D1816841F00201816021680320A9
:1002A000086001F055F905460FE000BF01F050F974
:1002B000401B022809D9606C40F010006064A06CFB
:1002C00040F00100A064012070BD20688068C00774
:1002D000ECD1002070BD000070B504460068816854
:1002E00001F00301012902D10168C90720D1816809
:1002F000104A11420DD1816841F00101816001F085
:1003000027F905460FE000BF01F022F9401B022843
:1003100009D9606C40F010006064A06C40F00100EE
:10032000A064012070BD20680068C043C007EBD105
:10033000002070BD3F00008070B5B649B44A48F651
:10034000FF75131D0C6807287AD2DFE800F07904E6
:100350003581BAF5F300106800F08F001060106866
:1003600040F060001060206A20F001002062086800
:10037000046A0462046A24F0040404620868046ADB
:1003800044F004040462106828401060106840F4CF
:10039000C04010600868026A22F010020262086819
:1003A000026A42F0100202620868026A22F0400209
:1003B00002620868026AB4E0106800F08F00106002
:1003C000106840F060001060206A20F00100206298
:1003D0000868046A0462046A24F004040462086879
:1003E000046A44F004040462106828401060106835
:1003F00040F4804010600868026A22F01002026235
:100400000868026A42F0100202620868026A22F07A
:10041000400202620868026A4AE018600868026ADC
:1004200022F4807202620868026A42F480720262F8
:100430000868026A22F4806202620868016A016246
:10044000186828401860186840F4E040186070BDD3
:10045000106800F08F001060106840F040001060DD
:10046000206A20F0010020620868046A44F0010458
:1004700004620868046A24F0040404620868046AD8
:100480000462106828401060106840F4C04010609A
:100490000868026A22F0100202620868026A0262B8
:1004A000026A22F0400202620868026A42F04002D8
:1004B0000262186800F08F001860186840F0600051
:1004C000ABE7106800F08F001060106840F060002B
:1004D0001060206A20F0010020620868046A44F07D
:1004E000010404620868046A24F0040404620868D1
:1004F000046A0462106828401060106840F4C0402C
:1005000010600868026A22F0100202620868026A3B
:100510000262026A22F0400202620868026A42F045
:1005200040020262186800F08F001860186840F0FE
:10053000400072E720E0FFE7106800F08F001060D5
:10054000106840F060001060206A20F00100206216
:100550000868046A44F0010404620868046A24F02C
:10056000040404620868046A046210682840106089
:10057000106840F480401EE0106800F08F001060AA
:10058000106840F040001060206A20F001002062F6
:100590000868046A44F0010404620868046A24F0EC
:1005A000040404620868046A046210682840106049
:1005B000106840F4C04010600868026A22F010021F
:1005C00002620868026A42F0100202620868026A67
:1005D00022F0400202620868026A0262186800F0B3
:1005E0008F001860186840F0600018600868026AA0
:1005F00022F4807202620868026A0262026A22F4CD
:10060000806202620868016A41F4806117E70000B5
:10061000182C0140B0010020FEE7000007480168E7
:1006200041F02001016006480178491CC9B20170FF
:10063000062901D90121017070470000142C0140E6
:100640000A000020014800F0D2BD00008400002014
:10065000014800F0CCBD0000100300200B4B0168E6
:100660001422994207D20A4B1944B1FBF2F18900D6
:100670000164084908E0054B5B421944B1FBF2F103
:100680008900016401490839C163704708040240C8
:10069000F8FFFDBF0000024030B590F84050012443
:1006A000AC40C56B6C60046863604368102B0368E2
:1006B00003D099600068C26030BD9A600068C16074
:1006C00030BD7047704700002DE9F041044690F8B6
:1006D0004000884601280AD0012584F84050204671
:1006E000FFF7C8FD06004FF0000703D033E00220FB
:1006F000BDE8F08165642068816821F080418160F7
:10070000B8F1010F04D12068816841F08041816017
:100710002068816841F00041816000F019FF0546C2
:100720000FE000BF00F014FF401B0A2809D9606CDD
:1007300020F0020040F01000606484F84070012056
:10074000D6E7206880680028ECDB606C20F00200AF
:1007500040F00100606484F840703046C8E7000053
:10076000F0B5002302684FF0A04C3D4C95B01F46F9
:10077000624501D100940DE0A24202D1CDF800C043
:1007800008E0384D384EAA4201D1009602E0B2424C
:1007900014D1009590F84050012D12D0012580F819
:1007A000405095686D0752D4009DAD686D074ED4DA
:1007B000624501D0A24206D12C4A05E0012015B0C5
:1007C000F0BD0220FBE72A4A0D6840F61F741DB3F6
:1007D0009568466B25F4604545EA46354E683543D5
:1007E00095600568AE6806F00306012E02D12D68FB
:1007F000ED0731D1009DAD6805F00305012D03D152
:10080000009D2D68ED0727D10D6889680D4391681B
:10081000A1430D4395601FE0916821F46041916010
:1008200001688D6805F00305012D02D10968C9072B
:1008300012D10099896801F00301012903D10099BF
:100840000968C90708D19168A143916004E0416C2F
:1008500041F020014164012380F840701846AEE762
:10086000000100500004005000050050000300503B
:1008700000070050F0B595B00024009490F8402097
:100880002546012A19D0012780F8407003689A682C
:1008900052077CD44A681F26052A11D2D3F830C0EB
:1008A00002EB4202520096402CEA060C0E6896407B
:1008B0004CEA060CC3F830C035E0022015B0F0BD9C
:1008C0000A2A0FD2D3F834C0521F02EB4202520060
:1008D00096402CEA060C0E6896404CEA060CC3F8CB
:1008E00034C020E00F2A0FD2D3F838C00A3A02EB06
:1008F0004202520096402CEA060C0E6896404CEAE2
:10090000060CC3F838C00EE0D3F83CC00F3A02EB37
:100910004202520096402CEA060C0E6896404CEAC1
:10092000060CC3F83CC00268936813F00C0F4FF03C
:10093000070374D1D1F800E0BEF10A0F10D3966915
:10094000AEF10A0E0EEB4E0C03FA0CFE26EA0E0672
:10095000D1F808E00EFA0CFE46EA0E0696610FE0AA
:10096000D2F814C00EEB4E0603FA06FE2CEA0E0C6B
:10097000D1F808E00EFA06FE4CEA0E0CC2F814C0DC
:1009800002684E69D2F80CC0CCF3C10C00E0FDE067
:100990004FEA4C0C06FA0CF6D1F810E0DFF848C22A
:1009A000BEF1010F42D0BEF1020F4DD0BEF1030FD8
:1009B00058D0BEF1040F63D0166E91F800C006F057
:1009C000F846B6EB8C6F03D1166E26F0004616661D
:1009D0000268566E91F800C006F0F846B6EB8C6FD0
:1009E00003D1566E26F0004656660268966E91F860
:1009F00000C006F0F846B6EB8C6F03D1966E26F079
:100A0000004696660268D66E91F800C006F0F84679
:100A1000B6EB8C6F03D1D66E26F00046D666026820
:100A2000966806F00306012E3AD136E0D2F860E06F
:100A30000EEA0C0E91F800C046EA8C664EEA060EED
:100A40004EF000461666EAE7D2F864E00EEA0C0EB5
:100A500091F800C046EA8C664EEA060E4EF000465B
:100A60005666DCE7D2F868E00EEA0C0E91F800C09A
:100A700046EA8C664EEA060E4EF000469666CEE7D3
:100A8000D2F86CE00EEA0C0E91F800C046EA8C66D3
:100A90004EEA060E4EF00046C0E71668F6077AD119
:100AA000CE68012E06D052F8B03F0E78B740BB4357
:100AB000136021E052F8B06F91F800C007FA0CF70C
:100AC0003E4316600A680A2A0BD30668B769093ADA
:100AD00002EB420293409F438B6893401F43B761F0
:100AE0000AE007687E69521C02EB420293409E4373
:100AF0008B6893401E437E6103684FF0A0473B4ED6
:100B0000BB4201D0B34201D1394A00E0394A0968F9
:100B1000102904D0112907D012290AD03BE0D2F8BD
:100B200008C04FEA0C2C08E0D2F808C04FEACC1CF1
:100B300003E0D2F808C04FEA4C2CBCF1000F2ADBCE
:100B4000BB420DD0B34201D100970CE02A4EDFF832
:100B5000ACC0B34202D1CDF800C004E0634501D17E
:100B6000009600E000959E6806F00306012E02D173
:100B70001E68F6070AD1009E8EB1B66806F003061D
:100B8000012E0CD1009E3668F60708D0416C41F06A
:100B900020014164012480F8405020468EE610294F
:100BA00008D011291AD01229F5D1916841F4800199
:100BB0009160F0E7BB42EED1916841F40001916091
:100BC0000F49104A0968B1FBF2F101EB81014900BC
:100BD00000E0491E00910029FBD1DCE7BB42DAD1DD
:100BE000916841F08071E3E700F0FF83000100505D
:100BF00000030050000700500004005000050050A2
:100C00002C00002040420F0003F0EDB87047704701
:100C1000F0B54FF0000695B0040037463546009613
:100C200005D0606CC00648D4606C18B133E0012078
:100C300015B0F0BDA5642565E56484F840502046F4
:100C400000F020F920688068C00024D42046FFF717
:100C500011FB0646606CC0061DD4E6B9606C20F43A
:100C6000885040F0020060642068816821F04051A3
:100C700081602068816841F08051816078487949BD
:100C80000068B0FBF1F000EB8000400000E0401E87
:100C900000900028FBD120688168C90002D58068D7
:100CA00080000AD5606C20F0020040F01000606403
:100CB000A06C40F00100A0640126606CC00671D4F5
:100CC000002E6FD12068816849076BD4616C21F4D4
:100CD000807141F0020161644FF0A04E624B70459B
:100CE00001D0984201D1614A00E0614ADFF884C135
:100CF0006149704501D100930EE0984202D1CDF8D0
:100D000000E009E0884202D1CDF800C004E060456F
:100D100001D1009100E00095836803F00303012BEB
:100D200002D10068C00710D1009840B1806800F07F
:100D30000300012803D100980068C00705D190681E
:100D4000636820F4403018439060D4E902201043D7
:100D5000A26B012A02D04FF4805300E00023E26925
:100D600043EA42331843636A3843012B0AD1D2B1B4
:100D7000626C22F0020242F020026264A26C42F035
:100D80000102A264E26A012A37D023688B4201D0B3
:100D900063452DD14FF430714FF4E0778A420AD188
:100DA0003A4627E052E0228D344B03EB42420243A5
:100DB00042F48030E6E74FF480739A4201D10A464C
:100DC00018E0BA4201D11A4614E0B2F58A5F06D0A3
:100DD000B2F5845F06D0B2F5865F06D00AE04FF424
:100DE000707207E04FF4A07204E04FF4C07201E0AB
:100DF00022F480520243206B104321688A6812F06B
:100E00000C0F0AD1CA6844F202039A43CA60A1696E
:100E1000626B890341EA420108432268D168184B9A
:100E200019400143D160206901282068016B21F03D
:100E30000F0102D1226A521E11430163A564606C46
:100E400020F0020040F00100606406E0606C20F0D9
:100E5000020040F01000606401263046E8E6000021
:100E60002C00002040420F00000100500003005001
:100E70000007005000050050000400500000FEFF75
:100E800007C0F0FF70B586B0054614216846FFF72D
:100E9000A4F92868B0F1A04F31D11A49486940F04F
:100EA00080504861486900F080500590486940F4DE
:100EB000002048614869002600F4002005900F20BA
:100EC00000900320CDE9010669460F4800F054FA6E
:100ED0000F4C0E48C4E900068020C4E902604000BF
:100EE0002061800060612020A0610002E061204656
:100EF00000F0D1F908B1FFF7E5FBEC63656206B0DD
:100F000070BD0000001002400008004808000240C8
:100F1000840000202DE9F05F044600688B4692466D
:100F2000816849077ED494F8401001290ED0012130
:100F30004FF0A048DFF81091444F84F8401040452E
:100F400001D0B84205D1D8F8080304E00220BDE87A
:100F5000F09FD9F800004FF0000610F01F0F01D0ED
:100F6000012504E02046FFF7B7F9050002D084F818
:100F7000406066E0606C40F60161884340F4807038
:100F8000606420684146884201D0B84202D1D1F85D
:100F9000082301E0D9F8002012F01F0F04D0884286
:100FA00002D02B4A904207D1616C21F48011616418
:100FB000C06880010ED413E0626C42F48012626457
:100FC000B84201D1C86802E021480C30006810F036
:100FD000007F05D0606C20F4005040F480506064C5
:100FE000606CC00404D5A06C20F00600A06400E092
:100FF000A66484F84060E16B16488862E16B16488D
:10100000C862E16B1548086321681C2008602068ED
:10101000416841F0100141602068C16841F0010160
:10102000C16000E00CE0216853465A464031E06B55
:1010300000F058F92068816841F00401816000E007
:101040000225284683E700000807005000010050F1
:1010500000040050150200086F0200085902000841
:1010600038B504004FF0000503D094F82900C006FD
:1010700001D501253EE02048816941F001018161EF
:10108000806900F001000090204600F037F894F8E5
:101090002910002009B984F82800D4E900100A6852
:1010A00022F07002024322F002000092A268104374
:1010B0000090A26920F4402010430090A28920F4FF
:1010C000705002F4705210430090226920F40040E6
:1010D000104300906069009A10430090E069009A04
:1010E00010430090206A009A10430090086001208D
:1010F00084F82900284638BD0010024070B586B03B
:10110000044614216846FFF768F8234A2068002542
:1011100022490324224E904219D1486940F40030FC
:101120004861486900F400300590486940F4802027
:1011300048614869694600F48020059010208DE8D8
:101140003100500600F018F94FF480400DE0124ACB
:101150000832904211D1486940F4802048614869C2
:1011600000F4802005904FF410508DE8310069465E
:10117000304600F001F906B070BD074A0C329042CB
:10118000F9D1486940F480204861486900F4802022
:1011900005904FF40840E8E72400014000100240A9
:1011A0000004004810B590F821100024022903D053
:1011B00004218163012418E001680A6822F00E020C
:1011C0000A6001680A6822F001020A6090F8402073
:1011D000C36B012101FA02F25A6080F8211000214C
:1011E00080F82010416B01B18847204610BDF0B453
:1011F000C16B0D6801680C68066C042202FA06F3E4
:101200002B420FD063070DD50B689B0603D40B68E8
:1012100023F004030B6090F840108A40C16B4A60D1
:10122000C16A1BE0022303FA06F72F424FF0000CBD
:101230004FF0010216D0A70714D50C68A40605D4F8
:101240000C6824F00A040C6080F8212090F840100B
:101250008B40C16B4B6080F820C0816A002918D098
:10126000F0BC08470823B3402B4212D0230710D507
:101270000B6823F00E030B6090F84010C36B02FA6A
:1012800001F15960826380F8212080F820C0016B51
:10129000E4E7F0BC704770B5040021D0022084F868
:1012A00021002268116843F6F0708143D4E90103FC
:1012B0001843D4E903352B43184363691843A369E2
:1012C0001843E3691843084310602046FFF7C6F946
:1012D0000020A063012184F8211084F8200070BD53
:1012E000012070BD70B5044690F82000002501284B
:1012F0000CD0012084F8200094F821600020012EF9
:1013000006D084F820000225284670BD022070BD5A
:10131000022684F82160A0632068066826F0010692
:1013200006602046FFF7B8F9E06A002820680168E7
:1013300002D041F00E0106E041F00A010160206890
:10134000016821F0040101602068016841F0010199
:101350000160D9E770B5044600F0FAF80546601C54
:1013600002D004480078044400F0F2F8401BA04288
:10137000FAD370BD200000202DE9F84FDFF8A0B1AE
:10138000002301274FF0030A4FF00F090BF1040E61
:10139000BEE000BF07FA03F63440220072D04C686A
:1013A000022C01D0122C12D1DC0800EB840CDCF8EA
:1013B00020405D07ED0E09FA05F824EA0804D1F88B
:1013C000108008FA05F848EA0408CCF82080D0F824
:1013D00000805D0091F804C00AFA05F40CF0030CDB
:1013E00028EA04080CFA05FC4CEA080CC0F800C016
:1013F000D1F804C0BCF1010F08D0BCF1020F05D038
:10140000BCF1110F02D0BCF1120F16D1D0F808C0F8
:10141000D1F80C802CEA040C08FA05F848EA0C080C
:10142000C0F80880D0F804C02CEA060C0E79C6F388
:1014300000169E4046EA0C064660C668A6438C68C5
:10144000AC403443C4604C68E40060D5354CA569B9
:1014500045F00105A561A46923F0030504F001042A
:101460000094314C2E19B4689D074FEA157C09FA97
:101470000CF5AC43B0F1904F05D02C4DA84204D1EF
:1014800001251CE043E0002519E0294DA84201D1C7
:10149000022514E0274DA84201D103250FE0264D77
:1014A000A84201D104250AE0244DA84201D1052516
:1014B00005E0234DA84201D1062500E0072505FAE5
:1014C0000CF52543B560DBF800405D464E6894435B
:1014D000F60300D514432C60DEF8004075464E68D4
:1014E0009443B60300D514432C600D4D08352C6889
:1014F0004E689443F60200D514432C60084D0C3519
:101500002C684E689443B60200D514432C605B1CD3
:101510000A681446DA407FF43DAFBDE8F88F00005A
:101520000004014000100240000001400004004897
:1015300000080048000C0048001000480014004853
:10154000001800480AB1816170478162704700004D
:101550000148806870470000200000200248816830
:10156000027811448160704720000020074810B5C0
:10157000016841F010010160032000F06DF80020C7
:1015800000F006F800F024F8002010BD0020024012
:1015900070B50D4D04464FF47A712878B1FBF0F028
:1015A0000A490968B1FBF0F000F00CFE48B9102CB4
:1015B00007D200222146501E00F02EF800206C6059
:1015C00070BD012070BD0000200000202C00002014
:1015D0000A4882B0816941F001018161816901F0AD
:1015E00001010091C16941F08051C161C06900F001
:1015F00080500090062002B000F02EB8001002408B
:1016000000F01F02012191404009800000F1E0201C
:10161000C0F8001170470000F0B40E4B1B680C4678
:10162000C3F30223C3F10705042D00D90425191DB6
:10163000072901D2002300E0DB1E012606FA05F18E
:10164000491E214099409E40761E16403143F0BC11
:1016500001F04ABD0CED00E0064900F00702086801
:101660004FF6FF03184040EA0220034A1043086087
:10167000704700000CED00E00000FA052DE9F84F7E
:10168000044600689F4DC0036FD5E8690026C0007E
:1016900008D4E86940F08050E861E869012600F06C
:1016A0008050009098480168C90512D401688046AE
:1016B00041F480710160FFF74BFF074605E000BF72
:1016C000FFF746FFC01B642835D8D8F80000C005D6
:1016D000F6D5286A10F4407053D0A18801F4407107
:1016E00081424ED0286A4FF4803191FAA1F2B2FAC9
:1016F00082F29700854A4FF00108174420F44070A9
:10170000C7F8008491FAA1F1B1FA81F102EB8101ED
:101710000023C1F800342862C00732D0FFF718FF59
:10172000074641F2883A4FF0020907E0FFF710FF41
:10173000C11B514502D90320BDE8F88F99FAA9F1E0
:10174000B1FA81F141F040024846B8EB521F01D195
:101750002A680CE090FAA0F2B2FA82F242F040025B
:10176000B0EB521F02D12A6A01E015E06A6A99FAC9
:10177000A9F0B0FA80F000F01F0008FA00F10A4268
:10178000D4D0286A616820F44070084328621EB1F2
:10179000E86920F08050E8612078C00705D0286B08
:1017A000A16820F00300084328632078800705D54E
:1017B000286BE16820F44030084328632078400714
:1017C00005D5286B216920F4402008432863207840
:1017D000800605D5286BE16920F0100008432863D6
:1017E0002068800305D56868616D20F48000084397
:1017F00068602078400605D5286B216A20F020001B
:10180000084328632068400305D5286B616A20F0EF
:101810004000084328632078000705D5286B6169DC
:1018200020F44010084328632078C00605D5286BB3
:10183000A16920F44000084328632088800505D56D
:101840006868216B20F40000084368602078000677
:1018500005D5E86AA16A20F4F8700843E862208898
:10186000C00505D5E86AE16A20F478500843E862CB
:101870002088C00405D5286B616B20F48070084374
:1018800028632088800405D5286B216C20F4007023
:10189000084328632068C00205D5286BA16B20F09F
:1018A0008070084328632068800205D5286BE16BAF
:1018B00020F00070084328632068400205D5286B9B
:1018C000616C20F48060084328632068000205D51D
:1018D000286BA16C20F40060084328632068C001D5
:1018E00005D5286BE16C20F400500843286320687C
:1018F000800105D5286B216D20F400400843286342
:10190000002019E700100240007000400000424231
:101910002DE9F0470F46050069D04A4E306800F0C7
:101920000700B84209D2306820F007003843306021
:10193000306800F00700B84259D12878424C80073F
:1019400005D56068A96820F0F00008436060287839
:10195000C0073DD06968012001290DD0022923D09C
:101960005FF0020393FAA3F2B2FA82F242F020028D
:10197000520904D0226803E04FF40033F2E7626AB0
:1019800093FAA3F3B3FA83F303F01F0398400242E0
:101990002DD0606820F0030008436060FFF7D8FD99
:1019A000804641F288390CE04FF00073DAE700BF5F
:1019B000FFF7CEFDA0EB0801494502D90320BDE8A1
:1019C000F0876068696800F00C00B0EB810FEFD120
:1019D000306800F00700B8420BD9306820F00700EB
:1019E00038433060306800F00700B84201D0012071
:1019F000E5E72878400705D56068E96820F4E060ED
:101A0000084360602878000706D56068296920F4DB
:101A1000605040EAC100606000F04CF86168F0225C
:101A200092FAA2F201F0F001B2FA82F2D140074A32
:101A3000515CC840064908600020FFF7A9FD00205E
:101A4000BDE700000020024000100240883F00086F
:101A50002C00002008480949006849684FF4E062FA
:101A600092FAA2F201F4E061B2FA82F2D140044AA1
:101A7000515CC840704700002C000020001002405C
:101A8000983F000808480949006849684FF46052C7
:101A900092FAA2F201F46051B2FA82F2D140044A01
:101AA000515CC840704700002C000020001002402C
:101AB000983F0008124B10B55968124801F00C020B
:101AC000042A1CD0082A1AD14FF4701494FAA4F4F2
:101AD00001F47012B4FA84F4E2400B4CDB6AA25CAD
:101AE0000F2494FAA4F403F00F03B4FA84F4E3404F
:101AF000054CC9031034E35CB0FBF3F0504310BD58
:101B00000010024000127A00683F00082DE9F84FEB
:101B100004007DD02078FA4DC0074FF0010637D081
:101B200068687704C0F38100012819D06868C0F3A1
:101B30008100022804D16868C0F3C13002280FD0A8
:101B40006068B0F5803F24D010B1B0F5A02F2AD046
:101B5000286820F480302860286820F480201BE06A
:101B600097FAA7F0B0FA80F040F02000400901D0C9
:101B7000286800E0686A97FAA7F1B1FA81F101F0EC
:101B80001F0106FA01F108424ED060680028C0D05B
:101B90004AE0286840F480302860606820B3FFF78E
:101BA000D7FC80460AE0286840F480202860F0E7EF
:101BB000FFF7CEFCA0EB0800642873D897FAA7F0D3
:101BC000B0FA80F040F02000400901D0286800E021
:101BD000686A97FAA7F1B1FA81F101F01F0106FADC
:101BE00001F10842E4D01FE0FFF7B2FC804605E0B7
:101BF000FFF7AEFCA0EB08006428DED897FAA7F048
:101C0000B0FA80F040F02000400902D0286801E0DE
:101C1000B9E0686A97FAA7F1B1FA81F101F01F0102
:101C200006FA01F10842E3D12078DFF8D882800774
:101C30004FF0000A4FF002075DD568684FF0F80BCF
:101C400010F00C0F15D06868C0F38100022804D191
:101C50006868C0F3C13001280BD0E068A0B396FAE1
:101C6000A6F0B0FA80F048F82060FFF771FC8146DA
:101C700020E097FAA7F0B0FA80F040F02000400989
:101C800001D0286800E0686A97FAA7F1B1FA81F1FB
:101C900001F01F0106FA01F1084221D0E068012895
:101CA00071D11DE056E100BFFFF752FCA0EB090027
:101CB0000228A2D897FAA7F0B0FA80F040F02000EE
:101CC000400902D0286801E016E0686A97FAA7F197
:101CD000B1FA81F101F01F0106FA01F10842E3D0E7
:101CE00028689BFAABF22169B2FA82F220F0F80080
:101CF00091400843286024E096FAA6F1B1FA81F1F8
:101D000048F821A0FFF724FC814605E0FFF720FCFE
:101D1000A0EB09000228CCD897FAA7F0B0FA80F01F
:101D200040F02000400901D0286800E0686A97FA76
:101D3000A7F1B1FA81F101F01F0106FA01F10842A1
:101D4000E4D1207800076AD56069A0B396FAA6F0BE
:101D5000B0FA80F008EB8000C0F88064FFF7F8FB71
:101D6000814605E0FFF7F4FBA0EB09000228A0D8AC
:101D700097FAA7F0B0FA80F040F06000B6EB501F81
:101D800002D128680CE073E197FAA7F0B0FA80F06E
:101D900040F06000B7EB501F01D1286A00E0686A8C
:101DA00097FAA7F1B1FA81F101F01F0106FA01F2E9
:101DB0001042D7D033E0FFE796FAA6F0B0FA80F0F1
:101DC00008EB8000C0F880A4FFF7C2FB814605E065
:101DD000FFF7BEFBA0EB090002289CD897FAA7F0FA
:101DE000B0FA80F040F06000B6EB501F01D12868D7
:101DF0000BE097FAA7F0B0FA80F040F06000B7EB84
:101E0000501F01D1286A00E0686A97FAA7F1B1FA79
:101E100081F101F01F0106FA01F21042D8D12078B9
:101E2000400774D5E8694FF00009C00009D4E8699B
:101E300040F08050E861E8694FF0010900F08050FF
:101E4000009031480168C90512D4016841F48071DD
:101E50000160FFF77DFB834606E000BFFFF778FBDC
:101E6000A0EB0B00642875D827480068C005F5D59D
:101E7000A06801280AD008B1052811D0286A20F0EE
:101E800001002862286A20F0040002E0286A40F07D
:101E900001002862A068C8B3FFF75AFB83460DE033
:101EA000286A40F004002862F0E700BFFFF750FB0B
:101EB000A0EB0B0141F2883081424BD897FAA7F092
:101EC000B0FA80F040F04000B6EB501F01D1286816
:101ED0000BE097FAA7F0B0FA80F040F04000B7EBC3
:101EE000501F01D1286A00E0686A97FAA7F1B1FA99
:101EF00081F101F01F0106FA01F21042D6D035E05F
:101F000000100240000042420070004000E034E057
:101F1000FFF71EFB834607E0FFF71AFBA0EB0B0160
:101F200041F28830814215D897FAA7F0B0FA80F0D4
:101F300040F04000B6EB501F01D128680CE097FA42
:101F4000A7F0B0FA80F040F04000B7EB501F02D18C
:101F5000286A01E089E0686A97FAA7F1B1FA81F18D
:101F600001F01F0106FA01F21042D5D1B9F1000FBC
:101F700003D0E86920F08050E861A06980B3696807
:101F8000C1F38101022973D04FF080714F00022804
:101F9000524609D091FAA1F0B0FA80F048F820201A
:101FA000FFF7D6FA044664E091FAA1F0B0FA80F0A7
:101FB0008A46C14648F82020FFF7CAFA804605E065
:101FC000FFF7C6FAA0EB080002284ED897FAA7F050
:101FD000B0FA80F040F02000400902D0286801E00B
:101FE0005CE0686A97FAA7F1B1FA81F101F01F018C
:101FF00006FA01F10842E3D1E86A616A20F00F00B5
:102000000843E862D4E907100843696821F47611AF
:10201000084368609AFAAAF0B0FA80F049F82060A4
:10202000FFF796FA044604E0FFF792FA001B022835
:102030001BD897FAA7F0B0FA80F040F020004009D2
:1020400001D0286800E0686A97FAA7F1B1FA81F137
:1020500001F01F0106FA01F10842E5D01EE000BFC1
:10206000FFF776FA001B022803D90320BDE8F88F9A
:1020700016E097FAA7F0B0FA80F040F0200040098F
:1020800001D0286800E0686A97FAA7F1B1FA81F1F7
:1020900001F01F0106FA01F10842E1D10020E5E755
:1020A0000120E3E72DE9F041040005D00025A562F9
:1020B00094F85D0018B107E00120BDE8F08184F8D4
:1020C0005C50204600F04AF8022384F85D30206816
:1020D000016821F040010160E0684FF4E066B04221
:1020E00001D9002101E04FF48051B0F5706F02D0AA
:1020F000B04200D0A562276B012227B9B04201D9B6
:10210000236300E02263D4E901031843D4E90436D1
:1021100033431843238B03F400731843E3691843D4
:10212000236A1843A36A184323681860636B606AC4
:10213000A66918430427E36807EA164633431843A1
:102140000843216848602068C16921F40061C161C9
:10215000256684F85D200020AFE7000010B586B04A
:10216000044614216846FEF738F81349206888426F
:102170001FD11248C16941F40041C161C16901F434
:1021800000410591416941F400214161406969467E
:1021900000F4002005904FF4E050009002200190E0
:1021A0000020029003200390062004900448FFF7CB
:1021B000E3F806B010BD0000003C004000100240F3
:1021C0000008004810B5401EB0F1807F01D3012007
:1021D00010BD4FF0E02460610F21601700F084FF14
:1021E0000020A06107202061002010BD70477047CB
:1021F00006484178012905D04178002905D10078A9
:10220000FEF79AB8007801F0DDBC70470A000020A4
:1022100030B590F83C20012A40D0012280F83C20C3
:10222000CA688B6822F440721A434B6822F48062B9
:102230001A430B6822F400621A430B6922F480529D
:102240001A434B6922F400521A438B6A22F48042EB
:102250001A4322F400421A430B8B22F4702242EA02
:1022600003420F4D03680024AB4205D00D4DAB4235
:1022700002D00D4DAB420CD18D8C22F4700242EA9B
:102280000552CD6922F080722A43096A22F0007259
:102290000A435A6480F83C40002030BD022030BD23
:1022A000002C0140003401400050014030B590F84E
:1022B0003C20012A22D0012280F83C200268536889
:1022C00094680F4DAA4205D00E4DAA4202D00E4D81
:1022D000AA4203D123F470054B682B4323F0700509
:1022E0000B6889682B4324F0800421435360026803
:1022F0009160002180F83C10084630BD022030BDBE
:10230000002C0140003401400050014010B504464B
:102310000068042200F0DBFF2068416C41F40041BA
:1023200041642068016841F001010160002010BD96
:1023300010B5040003D094F83D0010B107E001206F
:1023400010BD002084F83C00204600F00DF802206B
:1023500084F83D00211D206800F04CFF012084F826
:102360003D00002010BD000008B500680649884205
:1023700008D10648816941F400618161806900F4F7
:102380000060009008BD0000002C014000100240D9
:1023900070B5044690F83C00012817D0012584F858
:1023A0003C50022084F83D0022689068364E304050
:1023B00020F47F4090600868502839D00DDC202838
:1023C0005BD005DC98B3102843D153E0022070BDE8
:1023D000302855D040283CD141E0602830D07028CA
:1023E0000CD0B0F5805F03D0B0F5005F31D112E0C2
:1023F00020688168244A7032114016E0CB68D1E928
:102400000121206800F06EFF21688868304040F0AC
:10241000770088601DE0CB68D1E90121206800F0D9
:1024200061FF2068816841F48041816011E01EE015
:10243000CA684968206801F057F95021206806E011
:10244000CA684968206801F060F96021206800F0DE
:1024500053FF84F83D50002084F83C0070BDCA68EA
:102460004968206801F040F940212068EFE7002129
:102470002068ECE710212068E9E720212068E6E7E2
:1024800030212068E3E7000088FFFEFF2DE9F041DE
:102490000D46040003D094F83D0018B108E0012077
:1024A000BDE8F081002084F83C00204600F03CF8B4
:1024B000022084F83D00206881681A4A114081603A
:1024C000211D206800F096FE226890689169166AC6
:1024D0002B68AF69034340F20330814341EA07218F
:1024E000A868EF6908434FF6FC418843E96840EA71
:1024F0000720014328692F6A000140EA073008439A
:1025000069686D6926F0AA0646EA051529439360B5
:102510002268906120680162012084F83D0000205B
:10252000BEE70000F8FFFEFF10B586B00446142198
:102530006846FDF752FE2068B0F1804F1ED110486A
:10254000C16941F00101C161C16901F00101059159
:10255000416941F4003141614069694600F400304D
:10256000059003200090022001900020029003902B
:10257000012004904FF09040FEF7FEFE06B010BD23
:1025800000100240704770B50446006801694FF0C2
:102590000005C943890715D4C168C943890711D407
:1025A000E91E0161012020772068806980072046AC
:1025B00002D0FFF7E7FF04E000F0F4F8204600F057
:1025C000A2F9257720680169C943490717D4C16872
:1025D000C943490713D46FF0040101610220207739
:1025E0002068806910F4407F204602D0FFF7CAFFC0
:1025F00004E000F0D7F8204600F085F92577206840
:102600000169C943090716D4C168C943090712D42F
:102610006FF008010161042020772068C0698007FD
:10262000204602D0FFF7AEFF04E000F0BBF82046E2
:1026300000F069F9257720680169C943C90617D4F4
:10264000C168C943C90613D46FF0100101610820A5
:1026500020772068C06910F4407F204602D0FFF741
:1026600091FF04E000F09EF8204600F04CF9257739
:1026700020680169C943C90708D1C168C943C907AE
:1026800004D1891E0161204600F06EF920680169BD
:10269000C943090609D4C168C943090605D46FF0C6
:1026A000800101612046FFF7A2FD20680169C9434E
:1026B000C90509D4C168C943090605D46FF48071FE
:1026C00001612046FFF792FD20680169C943490670
:1026D00009D4C168C943490605D46FF040010161BE
:1026E000204600F063F920680169C94389060BD4CC
:1026F000C168C943890607D46FF0200101612046F3
:10270000BDE87040FFF774BD70BD0000F0B587B044
:10271000044614216846FDF760FD1F492068884281
:1027200037D11D480C30016841F0200101601A4882
:102730003830016841F00101016001680024046043
:102740001648416941F400314161416901F40031A9
:102750000591416941F4802141614069022600F4FC
:10276000802005904FF4F060CDE9000602AA032511
:10277000062782E8B00069464FF09040FEF7FCFD66
:10278000CDE9005602AA694682E8B0000448FEF787
:10279000F3FD07B0F0BD0000002C01400010024026
:1027A00000040048704770B5044690F83C000D46A0
:1027B00001280ED0012684F83C60022084F83D00F8
:1027C0000C2A45D007DC5AB1042A1BD0082A78D13C
:1027D0002CE0022070BD102A4ED0142A71D15DE089
:1027E000206800F091FD2068816941F00801816155
:1027F0002068816921F004018161206881692A696A
:10280000114311E0206800F0D5FD2068816941F492
:10281000006181612068816921F4806181612068A3
:1028200081692A6941EA022181614AE0206800F059
:1028300011FE2068C16941F00801C1612068C169C9
:1028400021F00401C1612068C1692A69114311E0C6
:10285000206800F04FFE2068C16941F40061C16149
:102860002068C16921F48061C1612068C1692A6959
:1028700041EA0221C16124E0206800F07BFE20686B
:10288000416D41F0080141652068416D21F004016E
:1028900041652068416D2A69114311E0206800F00C
:1028A000A5FE2068416D41F4006141652068416DDD
:1028B00021F4806141652068416D2A6941EA022165
:1028C000416584F83D60002084F83C0070BD10B57F
:1028D000040003D094F83D0010B107E0012010BDC2
:1028E000002084F83C00204600F00CF8022084F818
:1028F0003D00211D206800F07DFC012084F83D0092
:10290000002010BD7047704710B5044600680122D2
:1029100000F0D2FC0E48216881420ED00D48814261
:102920000BD00D48814208D00C48814205D00C489C
:10293000814202D00B48814203D1486C40F40040F0
:1029400048642068016841F001010160002010BD69
:10295000002C01400034014000400140004401408F
:102960000048014000500140704770B5044690F89F
:102970003C00012818D0012584F83C50022084F83E
:102980003D00204600F070FE2068C16821F0400143
:10299000C1602068C16821F48041C16084F83D5065
:1029A000002084F83C0070BD022070BD7047704765
:1029B0007047000070B503680446D869196810F0C4
:1029C0000F0508D1820606D58A0604D52046BDE843
:1029D000704000F063BF9A68002D66D002F00105D8
:1029E00001F490762E4360D0C60707D0CE0505D5FA
:1029F00001261E62E36E43F00103E366830708D5F8
:102A0000D30706D0266802233362E36E43F0040343
:102A1000E366430708D5D20706D0236804221A626A
:102A2000E26E42F00202E26602070AD501F02002DD
:102A30002A4306D0236808221A62E26E42F0080296
:102A4000E266E26E002A29D0800604D5880602D507
:102A5000204600F023FFE06E000703D42068806862
:102A600040061CD5204600F0FEFE2068816849061D
:102A700011D5816821F040018160606E58B11C4918
:102A80004163606EFEF78EFB002807D0606E416BDD
:102A9000BDE8704008472046FFF78AFF70BD20461A
:102AA000FFF786FF0020E06670BDC5020ED552021A
:102AB0000CD54FF480101862202084F8690084F847
:102AC0006A002046BDE87040FFF771BF020606D5D8
:102AD0000A0604D52046BDE8704001F007B840065C
:102AE000E2D54806E0D52046BDE8704000F0C9BEFA
:102AF0005338000810B5040003D094F8690010B1F1
:102B000007E0012010BD002084F86800204600F096
:102B100027F8242084F869002068016821F0010169
:102B20000160204600F0F6FE0128EBD0606A10B18B
:102B3000204600F0FCFD2068416821F4904141608E
:102B40002068816821F02A0181602068016841F0D5
:102B5000010101602046BDE8104000F04CBE0000BD
:102B6000F0B587B0064614216846FDF736FB2C4FBA
:102B7000346800252B49022303200722BC4230D1B0
:102B80008C6944F480448C618C6904F4804405941D
:102B90004C6944F400244C61496901F40021059119
:102BA00030218DE82A00CDE9030269461E48FEF770
:102BB000E3FB1F4C1D4820601020C4E90105802064
:102BC000C4E903052020C4E90550C001E0612046A6
:102BD000FEF761FB08B1FDF775FD3466666207B06C
:102BE000F0BD144EB442FAD1CC6944F40034CC6147
:102BF000CC6904F4003405944C6944F400344C610D
:102C0000496901F4003105910C218DE82A00CDE9D4
:102C1000030269464FF09040FEF7AEFBDFE700008D
:102C20000038014000100240000800484400024003
:102C3000100300200044004070477047FEE700008A
:102C400070B58AB000240694079418216846089449
:102C5000FDF7C3FA25484FF0A041032601604FF469
:102C60008031C0E90114C4614911446201634FF429
:102C700020710662C1620125C0E903450821C0E94F
:102C80000514C0E90D54FDF7C3FF08B1FDF71AFDA7
:102C900006A916480694FDF763FD08B1FDF712FD7D
:102CA0000620CDE90005CDE90254049469460F4899
:102CB0000594FDF7DFFD08B1FDF704FD0720009046
:102CC0000220019069460948FDF7D4FD08B1FDF7DF
:102CD000F9FC0920CDE9000669460448FDF7CAFD64
:102CE000002801D0FDF7EEFC0AB070BD30000020D6
:102CF0000B4810B5094901604021416000217F2245
:102D0000C0E90212016181614162FEF7A9F9002860
:102D100003D0BDE81040FDF7D5BC10BD2400014034
:102D2000C80000200B4810B50949016070214160BE
:102D300000217F22C0E90212016181614162FEF738
:102D40008FF9002803D0BDE81040FDF7BBBC10BDD3
:102D50002C000140F40000200B4810B50949016027
:102D60007021416000217F22C0E90212016181616E
:102D70004162FEF775F9002803D0BDE81040FDF769
:102D8000A1BC10BD3000014020010020054808B55D
:102D9000416941F001014161406900F0010000908A
:102DA00008BD0000001002402DE9F04387B0142157
:102DB0006846FDF712FA2D48416941F4002141614E
:102DC000416901F400210591416941F480014161AB
:102DD000416901F480010591416941F4003141618B
:102DE000416901F400310591416941F4802141615B
:102DF00040694FF0904800F4802005900122202186
:102E00004046FEF79FFBDFF868904FF4E077012221
:102E100039464846FEF796FB164D4FF40050CDE973
:102E200000050024694602944846FEF7A5FA2020D2
:102E30000126CDE900060320CDE90240694640465F
:102E4000FEF79AFA112000970394CDE9010669462E
:102E50004846FEF791FAF020CDE900056946029454
:102E60000548FEF789FA07B0BDE8F083001002407C
:102E7000000800480000111000040048124810B576
:102E8000104901604FF48271416000214FF440729B
:102E9000C0E902124FF400720161C0E90512C1617C
:102EA000016207224162C0E90A12016308214163FD
:102EB000FFF7F8F8002803D0BDE81040FDF702BC8A
:102EC00010BD0000003C00404C01002070B59EB0D9
:102ED00000241A941B941C94142112A81D94FDF72D
:102EE0007CF9179418941C2168461994FDF775F91C
:102EF0002C2107A8FDF771F942484149202580E8B7
:102F0000320040F60F61C0E903148026C0E905468F
:102F1000FFF70EFA08B1FDF7D5FB4FF480501A9079
:102F20001AA93848FFF734FA08B1FDF7CBFB35484A
:102F3000FFF7CDFC08B1FDF7C5FB0420CDE9120475
:102F400012A93048FFF711FD08B1FDF7BBFB4FF4A4
:102F500040001996CDE9175017A92A48FFF7A6F99E
:102F600008B1FDF7AFFB6020CDE900040220CDE9F8
:102F70000204049405940022694622480694FFF74F
:102F800012FC08B1FDF79EFB042269461D48FFF7BD
:102F90000AFC08B1FDF796FB082269461948FFF7BD
:102FA00002FC08B1FDF78EFB702000900120CDE9F6
:102FB00001040C2269461348FFF7F5FB08B1FDF741
:102FC00081FB4FF4006007904010CDE90804052014
:102FD000CDE90A044FF40050CDE90C040003CDE91B
:102FE0000E40C012CDE9104007A90648FFF710F9BE
:102FF00008B1FDF767FB0348FFF788FB1EB070BD03
:10300000002C0140B001002010B58CB0242168468E
:10301000FDF7E3F80024144809940A944FF0804126
:103020000B94C0E900148460C460046184610120D1
:10303000CDE90004CDE902040494CDE905400794EC
:10304000694609480894FFF721FA08B1FDF73AFBF1
:10305000099409A904480B94FFF728F9002801D026
:10306000FDF730FB0CB010BDF00100200D4810B58D
:103070000B4901604FF4E131416000218160082279
:10308000C160C0E904128161C16101624162FFF760
:1030900031FD002803D0BDE81040FDF713BB10BD83
:1030A00000380140300200200D4810B50B49016086
:1030B0004FF416414160002181600C22C160C0E9DB
:1030C00004128161C16101624162FFF713FD0028B2
:1030D00003D0BDE81040FDF7F5BA10BD0044004034
:1030E000A0020020FEE770470907090E002806DA53
:1030F00000F00F0000F1E02080F8141D704700F18F
:10310000E02080F80014704770477047FEF726BA39
:1031100030B5A5B0282116A8FDF75FF8142120A826
:10312000FDF75BF858216846FDF757F80120199024
:10313000102002251A90C002CDE91C504FF4E01077
:103140000024CDE91E04169516A8FEF7DFFC0F201B
:10315000CDE920056802CDE92240022120A824946F
:10316000FEF7D6FB05480394009002940D940E944C
:103170006846FEF783FA25B030BD0000031010004A
:103180001448016841F4700101601348016841F07E
:10319000010101604168114A114041600168104A13
:1031A00011400160016821F480210160416821F42F
:1031B000FE014160C16A21F00F01C162016B094A41
:1031C00011400163002181600249C0038039086019
:1031D0007047000088ED00E0001002400CC07FF84E
:1031E000FFFFF6FECCFC00FF0148FFF7CCB9000062
:1031F000B00100202DE9F0470268274B274E284FE9
:10320000284C294D4FF0804A984209D0504507D0AC
:10321000B04205D0B84203D0A04201D0A84204D1A8
:1032200022F0700C4A6842EA0C02DFF880C0DFF836
:103230008080DFF8809098420FD050450DD0B0428A
:103240000BD0B84209D0A04207D0604505D0404518
:1032500003D0484501D0A84203D122F44076CA6881
:1032600032434E6922F08002324302608A68C262B1
:103270000A688262984209D0A04207D0604505D012
:10328000404503D0484501D0A84201D109690163F6
:1032900001214161BDE8F087002C0140000400409D
:1032A000000800400034014000500140004001404F
:1032B000004401400048014010B50123046A8B40DE
:1032C0009C430462036A8A401343036210BD10B535
:1032D0000423046A8B409C430462036A8A401343BC
:1032E000036210BD10B5846842EA032224F47F44CF
:1032F0000A432243826010BD826822F070020A43B2
:1033000042F00701816070472DE9F047026A22F020
:1033100001020262056A436882691F4C25F00205BA
:1033200022400C6822F0030214438A681C4E2A4390
:103330001A4D1C4FDFF870C0DFF87090DFF870A0F6
:10334000A84209D0B04207D0B84205D0604503D0AA
:10335000484501D0504506D122F00808CA6842EA23
:10336000080222F00402A84209D0B04207D0B842B5
:1033700005D0604503D0484501D0504505D14D6981
:1033800023F440731D438B692B4343608461496878
:1033900041630262BDE8F0878FFFFEFF002C014011
:1033A0000034014000400140004401400048014019
:1033B00000500140F0B5026A22F010020262056A74
:1033C000426883691C4C1E4E23400C6823F44073F2
:1033D00043EA042425F020038D681A4F43EA0513BD
:1033E000164DA84203D0B04201D0B84207D1D1F85F
:1033F0000CC023F0800343EA0C1323F04003A842DF
:103400000CD0B0420AD0104DA84207D00F4DA842B0
:1034100004D00F4DA84201D0B84207D14D6922F423
:10342000406242EA85028D6942EA85024260846117
:10343000496881630362F0BDFF8FFFFE002C0140ED
:103440000034014000500140004001400044014070
:1034500000480140F0B5026A22F480720262056AF7
:103460004268C3691C4C1E4E23400C6823F00303C2
:103470001C4325F400738D681A4F43EA0523174D4A
:10348000A84203D0B04201D0B84207D1D1F80CC055
:1034900023F4006343EA0C2323F48063A8420CD096
:1034A000B0420AD0104DA84207D0104DA84204D017
:1034B0000F4DA84201D0B84207D14D6922F44052C5
:1034C00042EA05128D6942EA05124260C461496808
:1034D000C1630362F0BD00008FFFFEFF002C0140BE
:1034E00000340140005001400040014000440140D0
:1034F0000048014030B5026A22F480520262046A38
:103500004268C369144D24F400542B400D6823F421
:10351000407343EA05238D6844EA05340F4DA84201
:103520000ED00F4DA8420BD00E4DA84208D00E4D24
:10353000A84205D00D4DA84202D00D4DA84204D19D
:103540004D6922F4804242EA85124260C3614968B3
:103550000164046230BD0000FF8FFFFE002C0140BB
:103560000034014000400140004401400048014057
:103570000050014030B5026A22F480320262046ACF
:103580004268436D124D2B400D681D4324F40033F7
:103590000C8943EA04430F4CA0420ED00E4CA042CB
:1035A0000BD00E4CA04208D00D4CA04205D00D4CC3
:1035B000A04202D00C4CA04204D14C6922F48032CB
:1035C00042EA04224260456549688165036230BD74
:1035D0008FFFFEFF002C01400034014000400140FD
:1035E00000440140004801400050014030B5026AEB
:1035F00022F480120262046A4268436D134D24F47F
:1036000000142B400D6843EA05230D8944EA055454
:103610000F4DA8420ED00F4DA8420BD00E4DA84220
:1036200008D00E4DA84205D00D4DA84202D00D4D38
:10363000A84204D14D6922F4802242EA85224260E8
:1036400043654968C165046230BD0000FF8FFFFE1D
:10365000002C014000340140004001400044014082
:10366000004801400050014030B40468A26822F0D4
:1036700070034A681A431B4B1A400B681343A3603C
:103680004A6812F00F0F1FD11211082A1CD2DFE86E
:1036900002F01B1B1B1B0B1D23040B69D1E902212C
:1036A000006830BCFFF71EBE0268136A146A24F07B
:1036B0000104146202689469096924F0F00444EA80
:1036C000011191610068036230BC70470A69896822
:1036D000006830BC00F008B80A698968006830BC2E
:1036E00000F013B8F8FFFEFF10B5036A046A24F077
:1036F00001040462846924F0F00444EA021423F013
:103700000A020A438461026210BD10B5036A23F005
:10371000100303628369046A23F4704343EA0232AC
:1037200024F0A00343EA01118261016210BD90F808
:103730002410C90706D001684A68836A22F400325F
:103740001A434A6090F82410890706D501684A6830
:10375000C36A22F480321A434A6090F82410490761
:1037600006D501684A68036B22F480221A434A6036
:1037700090F82410090706D501684A68436B22F4C3
:1037800000421A434A6090F82410C90606D5016821
:103790008A68836B22F480521A438A6090F824105E
:1037A000890606D501688A68C36B22F400521A4361
:1037B0008A6090F82410490611D501684A68036CA4
:1037C00022F480121A434A60016CB1F5801F06D1C1
:1037D00001684A68436C22F4C0021A434A6090F8B8
:1037E0002410090606D501684A68806C22F400227C
:1037F00002434A607047F8B500260446C666FDF7E6
:10380000A7FE0546206800686FF07E47000708D5D0
:103810002B4600224FF400112046009700F098F943
:1038200060B92068006840070AD52B4600224FF493
:1038300080012046009700F08BF908B10320F8BD05
:10384000202084F8690084F86A0084F86860002009
:10385000F8BD10B5406A0021A0F85A10A0F8521027
:10386000FFF7A6F810BD01680A6822F490720A609A
:1038700001688A6822F001028A60202180F86A10BB
:10388000704710B501680A6822F040020A602021E2
:1038900080F86910FFF7D1F9002010BD10B5B0F81D
:1038A0005C2090F86A300168222B05D0886940F0CE
:1038B00008008861022010BD898C8368B3F5805FA1
:1038C00001D103696BB11140426D531C4365117006
:1038D000B0F85A10491E0904090CA0F85A1007D074
:1038E00015E0436D11401980416D891C4165EFE77A
:1038F00001680A6822F490720A6001688A6822F0FE
:1039000001028A60202180F86A10FFF795F90020F3
:1039100010BD00002DE9F041044610202369A26883
:10392000E6691A436369002133431A4323680D464D
:103930001E68654F3E4016431E6022685368E66865
:1039400023F4405333435360236AA2691A43236824
:103950009E6826F4306616439E605C4F22685C4B7E
:103960000603BA420CD11B6B13F0030306D0012BE4
:103970004DD0022B4DD0032B4CD146E0012049E025
:10398000544FBA420CD11B6B13F440333BD0B342BB
:103990003DD0B3F5003F3CD0B3F5403F3AD134E0E1
:1039A0004D4FBA420DD11B6B13F440232BD0B3F50E
:1039B000802F2CD0B3F5002F2BD0B3F5402F29D179
:1039C00023E0464FBA420DD11B6B13F440131AD0BB
:1039D000B3F5801F1BD0B3F5001F1AD0B3F5401FFD
:1039E00018D112E03E4FBA4214D11B6B13F44003BE
:1039F00009D0B3F5800F0AD0B3F5000F09D0B3F5A5
:103A0000400F07D101E0002004E0022002E0042082
:103A100000E00820E7694FF400439F4227D10928BE
:103A20001ED2DFE800F00508131D161D1D1D19002C
:103A3000FEF710F801E0FEF725F84100D4F8040085
:103A400001EB5001B1FBF0F081B20AE0254960685A
:103A5000F6E7FEF72FF8F0E7606806EB5001F1E7B4
:103A6000012521F00F00C1F3420108431CE00928A1
:103A700025D2DFE800F005080B24102424241C00C4
:103A8000FDF7E8FF09E0FDF7FDFF06E01649606875
:103A900001EB50010EE0FEF70DF80146606801EB06
:103AA0005001B1FBF0F080B22168C86008E06068A6
:103AB00003EB5001B1FBF0F080B2D06000E00125D3
:103AC0002846BDE8F0810000F369FFEF00380140AF
:103AD000001002400044004000480040004C0040FC
:103AE000005000400024F40000127A0090F86910A1
:103AF000212901D002207047B0F8521021B181680D
:103B0000B1F5805F0BD00CE001680A6822F08002FA
:103B10000A600068016841F0400101600CE0016941
:103B200061B1C16C4A1CC26402680978A2F828100D
:103B300030F8521F491E018000207047C16C026896
:103B40000988C1F308011185C16C891CC164EFE7C4
:103B50002DE9F041984617460E460446069D1DE0A5
:103B6000681C1BD02DB1FDF7F3FCA0EB0800A842A8
:103B700014D92068016821F4D0710160206881683F
:103B800021F001018160202084F8690084F86A0036
:103B9000002084F868000320BDE8F0812068C06937
:103BA00036EA000004D00020B842D9D00020F3E764
:103BB0000120F9E70148FEF7FDBE000030020020B9
:103BC000FEE700007E4907280A684BD2DFE800F0D4
:103BD0004A04276D90B3C500106A20F001001062FE
:103BE0000868026A0262026A22F00402026208683D
:103BF000026A42F0040202620868026A22F01002BD
:103C000002620868026A42F0100202620868026AF0
:103C100022F0400202620868026A026211E0106A41
:103C200020F0010010620868026A0262026A22F053
:103C3000040202620868026A42F004020262086832
:103C400044E0026A22F4807202620868026A42F466
:103C5000807202620868026A22F480620262086866
:103C6000016A01625748016801F08F010160016833
:103C700041F060010160026848F6FF710A4002608D
:103C8000026842F4C0420260001D026802F08F0226
:103C90000260026842F06002026002680A4002604C
:103CA000016841F4E04101607047106A20F00100B2
:103CB00010620868026A42F0010202620868026A41
:103CC00022F0040202620868026A0262026A22F0BA
:103CD000100202620868026A0262026A22F040026E
:103CE00002620868026A42F0400202620868A8E7BD
:103CF000106A20F0010010620868026A42F00102B6
:103D000002620868026A22F0040202620868026A1B
:103D10000262026A22F0100202620868026A02620B
:103D2000026A22F0400202620868026A42F040021F
:103D30000262086833E0106A20F00100106208682F
:103D4000026A42F0010202620868026A22F004027A
:103D500002620868026A026210E0106A20F0010044
:103D600010620868026A0262026A22F004020262B9
:103D70000868026A42F0040202620868026A22F0DD
:103D8000100202620868026A42F0100202620868C9
:103D9000026A22F0400202620868026A0262026A53
:103DA00022F4807202620868026A0262026A22F4E5
:103DB000806202620868016A41F4806151E7000094
:103DC000B0010020182C014002E008C8121F08C1F1
:103DD000002AFAD170477047002001E001C1121F8C
:103DE000002AFBD1704700F083B80000FDF7BEFB4E
:103DF000FFF78EF9FEF7D8FFFEF7C8FFFEF720FFAA
:103E0000FFF764F8FFF750F9FEF772FFFEF78AFF3D
:103E1000FEF7A2FFFFF7F8F8FFF730F8FFF726F9F3
:103E2000042200211A20FDF7F7FB1A20FDF7E8FB1A
:103E3000032200210B20FDF7EFFB0B20FDF7E0FB39
:103E4000032201210E20FDF7E7FB0E20FDF7D8FB32
:103E5000032200212520FDF7DFFB2520FDF7D0FB05
:103E600000212048FCF730FC0120FDF773FA032203
:103E70001D491C48FDF74EF81C481B4CA41F026846
:103E800061885163026891630268D163A288006807
:103E9000891A01641420FDF75DFA00211348FEF72A
:103EA00033FD00211148FEF731FA04210F48FEF7D7
:103EB0002BFD04210D48FEF729FA08210B48FEF7D7
:103EC00023FD08210948FEF721FA0C210748FEF7D7
:103ED0001BFD002220214FF09040FDF733FB012015
:103EE0002070FEE73000002010000020B00100200C
:103EF000F0B51A4803211B4A90F800C01848002367
:103F0000078846888588B8192844B0FBF1F081B24B
:103F10001078441CE4B2BCF1070F1CD2DFE80CF0AF
:103F20001B04090C0F121500A94210D813E01470DD
:103F3000F0BDB1420BD30EE0B94208D80BE0A94264
:103F400005D308E0B14202D805E0B94203D2012806
:103F5000EDD1FCF763FB1370F0BD00000A000020F8
:103F600010000020000000200203040506070809D5
:103F70000A0B0C0D0E0F10100102030405060708B2
:103F8000090A0B0C0D0E0F100000000000000000CD
:103F900001020304060708090000000001020304EF
:103FA000C03F00080000002030000000C83D0008AD
:103FB000F03F00083000002028070000D83D00082E
:103FC0000064463228231E1914000000D107FA00AD
:103FD00000000000000000000000000000000000E1
:103FE00001000000100000000000000000127A0034
:040000050800019559
:00000001FF
